{
  "contractName": "ERC4907",
  "abi": [
    {
      "inputs": [
        {
          "internalType": "string",
          "name": "name_",
          "type": "string"
        },
        {
          "internalType": "string",
          "name": "symbol_",
          "type": "string"
        }
      ],
      "stateMutability": "nonpayable",
      "type": "constructor"
    },
    {
      "anonymous": false,
      "inputs": [
        {
          "indexed": true,
          "internalType": "address",
          "name": "owner",
          "type": "address"
        },
        {
          "indexed": true,
          "internalType": "address",
          "name": "approved",
          "type": "address"
        },
        {
          "indexed": true,
          "internalType": "uint256",
          "name": "tokenId",
          "type": "uint256"
        }
      ],
      "name": "Approval",
      "type": "event"
    },
    {
      "anonymous": false,
      "inputs": [
        {
          "indexed": true,
          "internalType": "address",
          "name": "owner",
          "type": "address"
        },
        {
          "indexed": true,
          "internalType": "address",
          "name": "operator",
          "type": "address"
        },
        {
          "indexed": false,
          "internalType": "bool",
          "name": "approved",
          "type": "bool"
        }
      ],
      "name": "ApprovalForAll",
      "type": "event"
    },
    {
      "anonymous": false,
      "inputs": [
        {
          "indexed": true,
          "internalType": "address",
          "name": "from",
          "type": "address"
        },
        {
          "indexed": true,
          "internalType": "address",
          "name": "to",
          "type": "address"
        },
        {
          "indexed": true,
          "internalType": "uint256",
          "name": "tokenId",
          "type": "uint256"
        }
      ],
      "name": "Transfer",
      "type": "event"
    },
    {
      "anonymous": false,
      "inputs": [
        {
          "indexed": true,
          "internalType": "uint256",
          "name": "tokenId",
          "type": "uint256"
        },
        {
          "indexed": true,
          "internalType": "address",
          "name": "user",
          "type": "address"
        },
        {
          "indexed": false,
          "internalType": "uint64",
          "name": "expires",
          "type": "uint64"
        }
      ],
      "name": "UpdateUser",
      "type": "event"
    },
    {
      "inputs": [
        {
          "internalType": "address",
          "name": "to",
          "type": "address"
        },
        {
          "internalType": "uint256",
          "name": "tokenId",
          "type": "uint256"
        }
      ],
      "name": "approve",
      "outputs": [],
      "stateMutability": "nonpayable",
      "type": "function"
    },
    {
      "inputs": [
        {
          "internalType": "address",
          "name": "owner",
          "type": "address"
        }
      ],
      "name": "balanceOf",
      "outputs": [
        {
          "internalType": "uint256",
          "name": "",
          "type": "uint256"
        }
      ],
      "stateMutability": "view",
      "type": "function"
    },
    {
      "inputs": [
        {
          "internalType": "uint256",
          "name": "tokenId",
          "type": "uint256"
        }
      ],
      "name": "getApproved",
      "outputs": [
        {
          "internalType": "address",
          "name": "",
          "type": "address"
        }
      ],
      "stateMutability": "view",
      "type": "function"
    },
    {
      "inputs": [
        {
          "internalType": "address",
          "name": "owner",
          "type": "address"
        },
        {
          "internalType": "address",
          "name": "operator",
          "type": "address"
        }
      ],
      "name": "isApprovedForAll",
      "outputs": [
        {
          "internalType": "bool",
          "name": "",
          "type": "bool"
        }
      ],
      "stateMutability": "view",
      "type": "function"
    },
    {
      "inputs": [],
      "name": "name",
      "outputs": [
        {
          "internalType": "string",
          "name": "",
          "type": "string"
        }
      ],
      "stateMutability": "view",
      "type": "function"
    },
    {
      "inputs": [
        {
          "internalType": "uint256",
          "name": "tokenId",
          "type": "uint256"
        }
      ],
      "name": "ownerOf",
      "outputs": [
        {
          "internalType": "address",
          "name": "",
          "type": "address"
        }
      ],
      "stateMutability": "view",
      "type": "function"
    },
    {
      "inputs": [
        {
          "internalType": "address",
          "name": "from",
          "type": "address"
        },
        {
          "internalType": "address",
          "name": "to",
          "type": "address"
        },
        {
          "internalType": "uint256",
          "name": "tokenId",
          "type": "uint256"
        }
      ],
      "name": "safeTransferFrom",
      "outputs": [],
      "stateMutability": "nonpayable",
      "type": "function"
    },
    {
      "inputs": [
        {
          "internalType": "address",
          "name": "from",
          "type": "address"
        },
        {
          "internalType": "address",
          "name": "to",
          "type": "address"
        },
        {
          "internalType": "uint256",
          "name": "tokenId",
          "type": "uint256"
        },
        {
          "internalType": "bytes",
          "name": "data",
          "type": "bytes"
        }
      ],
      "name": "safeTransferFrom",
      "outputs": [],
      "stateMutability": "nonpayable",
      "type": "function"
    },
    {
      "inputs": [
        {
          "internalType": "address",
          "name": "operator",
          "type": "address"
        },
        {
          "internalType": "bool",
          "name": "approved",
          "type": "bool"
        }
      ],
      "name": "setApprovalForAll",
      "outputs": [],
      "stateMutability": "nonpayable",
      "type": "function"
    },
    {
      "inputs": [],
      "name": "symbol",
      "outputs": [
        {
          "internalType": "string",
          "name": "",
          "type": "string"
        }
      ],
      "stateMutability": "view",
      "type": "function"
    },
    {
      "inputs": [
        {
          "internalType": "uint256",
          "name": "tokenId",
          "type": "uint256"
        }
      ],
      "name": "tokenURI",
      "outputs": [
        {
          "internalType": "string",
          "name": "",
          "type": "string"
        }
      ],
      "stateMutability": "view",
      "type": "function"
    },
    {
      "inputs": [
        {
          "internalType": "address",
          "name": "from",
          "type": "address"
        },
        {
          "internalType": "address",
          "name": "to",
          "type": "address"
        },
        {
          "internalType": "uint256",
          "name": "tokenId",
          "type": "uint256"
        }
      ],
      "name": "transferFrom",
      "outputs": [],
      "stateMutability": "nonpayable",
      "type": "function"
    },
    {
      "inputs": [
        {
          "internalType": "uint256",
          "name": "tokenId",
          "type": "uint256"
        },
        {
          "internalType": "address",
          "name": "user",
          "type": "address"
        },
        {
          "internalType": "uint64",
          "name": "expires",
          "type": "uint64"
        }
      ],
      "name": "setUser",
      "outputs": [],
      "stateMutability": "nonpayable",
      "type": "function"
    },
    {
      "inputs": [
        {
          "internalType": "uint256",
          "name": "tokenId",
          "type": "uint256"
        }
      ],
      "name": "userOf",
      "outputs": [
        {
          "internalType": "address",
          "name": "",
          "type": "address"
        }
      ],
      "stateMutability": "view",
      "type": "function"
    },
    {
      "inputs": [
        {
          "internalType": "uint256",
          "name": "tokenId",
          "type": "uint256"
        }
      ],
      "name": "userExpires",
      "outputs": [
        {
          "internalType": "uint256",
          "name": "",
          "type": "uint256"
        }
      ],
      "stateMutability": "view",
      "type": "function"
    },
    {
      "inputs": [
        {
          "internalType": "bytes4",
          "name": "interfaceId",
          "type": "bytes4"
        }
      ],
      "name": "supportsInterface",
      "outputs": [
        {
          "internalType": "bool",
          "name": "",
          "type": "bool"
        }
      ],
      "stateMutability": "view",
      "type": "function"
    }
  ],
  "bytecode": "0x60806040523480156200001157600080fd5b50604051620017083803806200170883398101604081905262000034916200012b565b8181600062000044838262000224565b50600162000053828262000224565b5050505050620002f0565b634e487b7160e01b600052604160045260246000fd5b600082601f8301126200008657600080fd5b81516001600160401b0380821115620000a357620000a36200005e565b604051601f8301601f19908116603f01168101908282118183101715620000ce57620000ce6200005e565b81604052838152602092508683858801011115620000eb57600080fd5b600091505b838210156200010f5785820183015181830184015290820190620000f0565b83821115620001215760008385830101525b9695505050505050565b600080604083850312156200013f57600080fd5b82516001600160401b03808211156200015757600080fd5b620001658683870162000074565b935060208501519150808211156200017c57600080fd5b506200018b8582860162000074565b9150509250929050565b600181811c90821680620001aa57607f821691505b602082108103620001cb57634e487b7160e01b600052602260045260246000fd5b50919050565b601f8211156200021f57600081815260208120601f850160051c81016020861015620001fa5750805b601f850160051c820191505b818110156200021b5782815560010162000206565b5050505b505050565b81516001600160401b038111156200024057620002406200005e565b620002588162000251845462000195565b84620001d1565b602080601f831160018114620002905760008415620002775750858301515b600019600386901b1c1916600185901b1785556200021b565b600085815260208120601f198616915b82811015620002c157888601518255948401946001909101908401620002a0565b5085821015620002e05787850151600019600388901b60f8161c191681555b5050505050600190811b01905550565b61140880620003006000396000f3fe608060405234801561001057600080fd5b50600436106101005760003560e01c80638fc88c4811610097578063c2f1f14a11610066578063c2f1f14a1461023b578063c87b56dd1461024e578063e030565e14610261578063e985e9c51461027457600080fd5b80638fc88c48146101dc57806395d89b411461020d578063a22cb46514610215578063b88d4fde1461022857600080fd5b806323b872dd116100d357806323b872dd1461018257806342842e0e146101955780636352211e146101a857806370a08231146101bb57600080fd5b806301ffc9a71461010557806306fdde031461012d578063081812fc14610142578063095ea7b31461016d575b600080fd5b610118610113366004610ed6565b6102b0565b60405190151581526020015b60405180910390f35b6101356102db565b6040516101249190610f4b565b610155610150366004610f5e565b61036d565b6040516001600160a01b039091168152602001610124565b61018061017b366004610f8e565b610394565b005b610180610190366004610fb8565b6104ae565b6101806101a3366004610fb8565b6104df565b6101556101b6366004610f5e565b6104fa565b6101ce6101c9366004610ff4565b61055a565b604051908152602001610124565b6101ce6101ea366004610f5e565b600090815260066020526040902054600160a01b900467ffffffffffffffff1690565b6101356105e0565b61018061022336600461100f565b6105ef565b610180610236366004611061565b6105fe565b610155610249366004610f5e565b610636565b61013561025c366004610f5e565b610686565b61018061026f36600461113d565b6106fa565b61011861028236600461118a565b6001600160a01b03918216600090815260056020908152604080832093909416825291909152205460ff1690565b60006001600160e01b03198216632b424ad760e21b14806102d557506102d5826107ec565b92915050565b6060600080546102ea906111bd565b80601f0160208091040260200160405190810160405280929190818152602001828054610316906111bd565b80156103635780601f1061033857610100808354040283529160200191610363565b820191906000526020600020905b81548152906001019060200180831161034657829003601f168201915b5050505050905090565b60006103788261083c565b506000908152600460205260409020546001600160a01b031690565b600061039f826104fa565b9050806001600160a01b0316836001600160a01b0316036104115760405162461bcd60e51b815260206004820152602160248201527f4552433732313a20617070726f76616c20746f2063757272656e74206f776e656044820152603960f91b60648201526084015b60405180910390fd5b336001600160a01b038216148061042d575061042d8133610282565b61049f5760405162461bcd60e51b815260206004820152603e60248201527f4552433732313a20617070726f76652063616c6c6572206973206e6f7420746f60448201527f6b656e206f776e6572206e6f7220617070726f76656420666f7220616c6c00006064820152608401610408565b6104a9838361089e565b505050565b6104b8338261090c565b6104d45760405162461bcd60e51b8152600401610408906111f7565b6104a983838361098b565b6104a9838383604051806020016040528060008152506105fe565b6000818152600260205260408120546001600160a01b0316806102d55760405162461bcd60e51b8152602060048201526018602482015277115490cdcc8c4e881a5b9d985b1a59081d1bdad95b88125160421b6044820152606401610408565b60006001600160a01b0382166105c45760405162461bcd60e51b815260206004820152602960248201527f4552433732313a2061646472657373207a65726f206973206e6f7420612076616044820152683634b21037bbb732b960b91b6064820152608401610408565b506001600160a01b031660009081526003602052604090205490565b6060600180546102ea906111bd565b6105fa338383610b32565b5050565b610608338361090c565b6106245760405162461bcd60e51b8152600401610408906111f7565b61063084848484610c01565b50505050565b60008181526006602052604081205442600160a01b90910467ffffffffffffffff161061067957506000908152600660205260409020546001600160a01b031690565b506000919050565b919050565b60606106918261083c565b60006106a860408051602081019091526000815290565b905060008151116106c857604051806020016040528060008152506106f3565b806106d284610c34565b6040516020016106e3929190611245565b6040516020818303038152906040525b9392505050565b610704338461090c565b61076b5760405162461bcd60e51b815260206004820152603260248201527f455243343930373a207472616e736665722063616c6c6572206973206e6f74206044820152711bdddb995c881b9bdc88185c1c1c9bdd995960721b6064820152608401610408565b60008381526006602090815260409182902080546001600160a01b0386166001600160e01b03199091168117600160a01b67ffffffffffffffff871690810291909117835593519384529092909186917f4e06b4e7000e659094299b3533b47b6aa8ad048e95e872d23d1f4ee55af89cfe910160405180910390a350505050565b60006001600160e01b031982166380ac58cd60e01b148061081d57506001600160e01b03198216635b5e139f60e01b145b806102d557506301ffc9a760e01b6001600160e01b03198316146102d5565b6000818152600260205260409020546001600160a01b031661089b5760405162461bcd60e51b8152602060048201526018602482015277115490cdcc8c4e881a5b9d985b1a59081d1bdad95b88125160421b6044820152606401610408565b50565b600081815260046020526040902080546001600160a01b0319166001600160a01b03841690811790915581906108d3826104fa565b6001600160a01b03167f8c5be1e5ebec7d5bd14f71427d1e84f3dd0314c0f7b2291e5b200ac8c7c3b92560405160405180910390a45050565b600080610918836104fa565b9050806001600160a01b0316846001600160a01b0316148061095f57506001600160a01b0380821660009081526005602090815260408083209388168352929052205460ff165b806109835750836001600160a01b03166109788461036d565b6001600160a01b0316145b949350505050565b826001600160a01b031661099e826104fa565b6001600160a01b031614610a025760405162461bcd60e51b815260206004820152602560248201527f4552433732313a207472616e736665722066726f6d20696e636f72726563742060448201526437bbb732b960d91b6064820152608401610408565b6001600160a01b038216610a645760405162461bcd60e51b8152602060048201526024808201527f4552433732313a207472616e7366657220746f20746865207a65726f206164646044820152637265737360e01b6064820152608401610408565b610a6f838383610d35565b610a7a60008261089e565b6001600160a01b0383166000908152600360205260408120805460019290610aa390849061128a565b90915550506001600160a01b0382166000908152600360205260408120805460019290610ad19084906112a1565b909155505060008181526002602052604080822080546001600160a01b0319166001600160a01b0386811691821790925591518493918716917fddf252ad1be2c89b69c2b068fc378daa952ba7f163c4a11628f55a4df523b3ef91a4505050565b816001600160a01b0316836001600160a01b031603610b935760405162461bcd60e51b815260206004820152601960248201527f4552433732313a20617070726f766520746f2063616c6c6572000000000000006044820152606401610408565b6001600160a01b03838116600081815260056020908152604080832094871680845294825291829020805460ff191686151590811790915591519182527f17307eab39ab6107e8899845ad3d59bd9653f200f220920489ca2b5937696c3191015b60405180910390a3505050565b610c0c84848461098b565b610c1884848484610dbf565b6106305760405162461bcd60e51b8152600401610408906112b9565b606081600003610c5b5750506040805180820190915260018152600360fc1b602082015290565b8160005b8115610c855780610c6f8161130b565b9150610c7e9050600a8361133a565b9150610c5f565b60008167ffffffffffffffff811115610ca057610ca061104b565b6040519080825280601f01601f191660200182016040528015610cca576020820181803683370190505b5090505b841561098357610cdf60018361128a565b9150610cec600a8661134e565b610cf79060306112a1565b60f81b818381518110610d0c57610d0c611362565b60200101906001600160f81b031916908160001a905350610d2e600a8661133a565b9450610cce565b816001600160a01b0316836001600160a01b031614158015610d6d57506000818152600660205260409020546001600160a01b031615155b156104a957600081815260066020908152604080832080546001600160e01b03191690555182815283917f4e06b4e7000e659094299b3533b47b6aa8ad048e95e872d23d1f4ee55af89cfe9101610bf4565b60006001600160a01b0384163b15610eb557604051630a85bd0160e11b81526001600160a01b0385169063150b7a0290610e03903390899088908890600401611378565b6020604051808303816000875af1925050508015610e3e575060408051601f3d908101601f19168201909252610e3b918101906113b5565b60015b610e9b573d808015610e6c576040519150601f19603f3d011682016040523d82523d6000602084013e610e71565b606091505b508051600003610e935760405162461bcd60e51b8152600401610408906112b9565b805181602001fd5b6001600160e01b031916630a85bd0160e11b149050610983565b506001949350505050565b6001600160e01b03198116811461089b57600080fd5b600060208284031215610ee857600080fd5b81356106f381610ec0565b60005b83811015610f0e578181015183820152602001610ef6565b838111156106305750506000910152565b60008151808452610f37816020860160208601610ef3565b601f01601f19169290920160200192915050565b6020815260006106f36020830184610f1f565b600060208284031215610f7057600080fd5b5035919050565b80356001600160a01b038116811461068157600080fd5b60008060408385031215610fa157600080fd5b610faa83610f77565b946020939093013593505050565b600080600060608486031215610fcd57600080fd5b610fd684610f77565b9250610fe460208501610f77565b9150604084013590509250925092565b60006020828403121561100657600080fd5b6106f382610f77565b6000806040838503121561102257600080fd5b61102b83610f77565b91506020830135801515811461104057600080fd5b809150509250929050565b634e487b7160e01b600052604160045260246000fd5b6000806000806080858703121561107757600080fd5b61108085610f77565b935061108e60208601610f77565b925060408501359150606085013567ffffffffffffffff808211156110b257600080fd5b818701915087601f8301126110c657600080fd5b8135818111156110d8576110d861104b565b604051601f8201601f19908116603f011681019083821181831017156111005761110061104b565b816040528281528a602084870101111561111957600080fd5b82602086016020830137600060208483010152809550505050505092959194509250565b60008060006060848603121561115257600080fd5b8335925061116260208501610f77565b9150604084013567ffffffffffffffff8116811461117f57600080fd5b809150509250925092565b6000806040838503121561119d57600080fd5b6111a683610f77565b91506111b460208401610f77565b90509250929050565b600181811c908216806111d157607f821691505b6020821081036111f157634e487b7160e01b600052602260045260246000fd5b50919050565b6020808252602e908201527f4552433732313a2063616c6c6572206973206e6f7420746f6b656e206f776e6560408201526d1c881b9bdc88185c1c1c9bdd995960921b606082015260800190565b60008351611257818460208801610ef3565b83519083019061126b818360208801610ef3565b01949350505050565b634e487b7160e01b600052601160045260246000fd5b60008282101561129c5761129c611274565b500390565b600082198211156112b4576112b4611274565b500190565b60208082526032908201527f4552433732313a207472616e7366657220746f206e6f6e20455243373231526560408201527131b2b4bb32b91034b6b83632b6b2b73a32b960711b606082015260800190565b60006001820161131d5761131d611274565b5060010190565b634e487b7160e01b600052601260045260246000fd5b60008261134957611349611324565b500490565b60008261135d5761135d611324565b500690565b634e487b7160e01b600052603260045260246000fd5b6001600160a01b03858116825284166020820152604081018390526080606082018190526000906113ab90830184610f1f565b9695505050505050565b6000602082840312156113c757600080fd5b81516106f381610ec056fea2646970667358221220e2b6cb4ecf781d77dd1cc94dccf959dcf13c7090af7de3d43484d742723a7b2964736f6c634300080f0033",
  "immutableReferences": {},
  "source": "// SPDX-License-Identifier: CC0-1.0\r\npragma solidity ^0.8.0;\r\n\r\nimport \"@openzeppelin/contracts/token/ERC721/ERC721.sol\";\r\nimport \"./IERC4907.sol\";\r\n\r\ncontract ERC4907 is ERC721, IERC4907 {\r\n    struct UserInfo {\r\n        address user; // address of user role\r\n        uint64 expires; // unix timestamp, user expires\r\n    }\r\n\r\n    mapping(uint256 => UserInfo) internal _users;\r\n\r\n    constructor(string memory name_, string memory symbol_)\r\n        ERC721(name_, symbol_)\r\n    {}\r\n\r\n    /// @notice set the user and expires of a NFT\r\n    /// @dev The zero address indicates there is no user\r\n    /// Throws if `tokenId` is not valid NFT\r\n    /// @param user  The new user of the NFT\r\n    /// @param expires  UNIX timestamp, The new user could use the NFT before expires\r\n    function setUser(\r\n        uint256 tokenId,\r\n        address user,\r\n        uint64 expires\r\n    ) public virtual override {\r\n        require(\r\n            _isApprovedOrOwner(msg.sender, tokenId),\r\n            \"ERC4907: transfer caller is not owner nor approved\"\r\n        );\r\n        UserInfo storage info = _users[tokenId];\r\n        info.user = user;\r\n        info.expires = expires;\r\n        emit UpdateUser(tokenId, user, expires);\r\n    }\r\n\r\n    /// @notice Get the user address of an NFT\r\n    /// @dev The zero address indicates that there is no user or the user is expired\r\n    /// @param tokenId The NFT to get the user address for\r\n    /// @return The user address for this NFT\r\n    function userOf(uint256 tokenId)\r\n        public\r\n        view\r\n        virtual\r\n        override\r\n        returns (address)\r\n    {\r\n        if (uint256(_users[tokenId].expires) >= block.timestamp) {\r\n            return _users[tokenId].user;\r\n        } else {\r\n            return address(0);\r\n        }\r\n    }\r\n\r\n    /// @notice Get the user expires of an NFT\r\n    /// @dev The zero value indicates that there is no user\r\n    /// @param tokenId The NFT to get the user expires for\r\n    /// @return The user expires for this NFT\r\n    function userExpires(uint256 tokenId)\r\n        public\r\n        view\r\n        virtual\r\n        override\r\n        returns (uint256)\r\n    {\r\n        return _users[tokenId].expires;\r\n    }\r\n\r\n    /// @dev See {IERC165-supportsInterface}.\r\n    function supportsInterface(bytes4 interfaceId)\r\n        public\r\n        view\r\n        virtual\r\n        override\r\n        returns (bool)\r\n    {\r\n        return\r\n            interfaceId == type(IERC4907).interfaceId ||\r\n            super.supportsInterface(interfaceId);\r\n    }\r\n\r\n    function _beforeTokenTransfer(\r\n        address from,\r\n        address to,\r\n        uint256 tokenId\r\n    ) internal virtual override {\r\n        super._beforeTokenTransfer(from, to, tokenId);\r\n\r\n        if (from != to && _users[tokenId].user != address(0)) {\r\n            delete _users[tokenId];\r\n            emit UpdateUser(tokenId, address(0), 0);\r\n        }\r\n    }\r\n}\r\n",
  "sourcePath": "C:\\Users\\Ghadi\\Desktop\\Portfolio\\LeasableNft\\contracts\\ERC4907.sol",
  "compiler": {
    "name": "solc",
    "version": "0.8.15+commit.e14f2714.Emscripten.clang"
  },
  "schemaVersion": "3.4.4",
  "updatedAt": "2022-07-24T09:16:20.950Z",
  "devdoc": {
    "kind": "dev",
    "methods": {
      "approve(address,uint256)": {
        "details": "See {IERC721-approve}."
      },
      "balanceOf(address)": {
        "details": "See {IERC721-balanceOf}."
      },
      "getApproved(uint256)": {
        "details": "See {IERC721-getApproved}."
      },
      "isApprovedForAll(address,address)": {
        "details": "See {IERC721-isApprovedForAll}."
      },
      "name()": {
        "details": "See {IERC721Metadata-name}."
      },
      "ownerOf(uint256)": {
        "details": "See {IERC721-ownerOf}."
      },
      "safeTransferFrom(address,address,uint256)": {
        "details": "See {IERC721-safeTransferFrom}."
      },
      "safeTransferFrom(address,address,uint256,bytes)": {
        "details": "See {IERC721-safeTransferFrom}."
      },
      "setApprovalForAll(address,bool)": {
        "details": "See {IERC721-setApprovalForAll}."
      },
      "setUser(uint256,address,uint64)": {
        "details": "The zero address indicates there is no user Throws if `tokenId` is not valid NFT",
        "params": {
          "expires": "UNIX timestamp, The new user could use the NFT before expires",
          "user": "The new user of the NFT"
        }
      },
      "supportsInterface(bytes4)": {
        "details": "See {IERC165-supportsInterface}."
      },
      "symbol()": {
        "details": "See {IERC721Metadata-symbol}."
      },
      "tokenURI(uint256)": {
        "details": "See {IERC721Metadata-tokenURI}."
      },
      "transferFrom(address,address,uint256)": {
        "details": "See {IERC721-transferFrom}."
      },
      "userExpires(uint256)": {
        "details": "The zero value indicates that there is no user",
        "params": {
          "tokenId": "The NFT to get the user expires for"
        },
        "returns": {
          "_0": "The user expires for this NFT"
        }
      },
      "userOf(uint256)": {
        "details": "The zero address indicates that there is no user or the user is expired",
        "params": {
          "tokenId": "The NFT to get the user address for"
        },
        "returns": {
          "_0": "The user address for this NFT"
        }
      }
    },
    "version": 1
  },
  "userdoc": {
    "events": {
      "UpdateUser(uint256,address,uint64)": {
        "notice": "Emitted when the `user` of an NFT or the `expires` of the `user` is changed The zero address for user indicates that there is no user address"
      }
    },
    "kind": "user",
    "methods": {
      "setUser(uint256,address,uint64)": {
        "notice": "set the user and expires of a NFT"
      },
      "userExpires(uint256)": {
        "notice": "Get the user expires of an NFT"
      },
      "userOf(uint256)": {
        "notice": "Get the user address of an NFT"
      }
    },
    "version": 1
  }
}