{
  "contractName": "LeasableNft",
  "abi": [
    {
      "inputs": [
        {
          "internalType": "string",
          "name": "name",
          "type": "string"
        },
        {
          "internalType": "string",
          "name": "symbol",
          "type": "string"
        },
        {
          "internalType": "string",
          "name": "baseTokenURI",
          "type": "string"
        },
        {
          "internalType": "string",
          "name": "notRevealedURI",
          "type": "string"
        },
        {
          "internalType": "uint256",
          "name": "mintPrice_",
          "type": "uint256"
        },
        {
          "internalType": "uint32",
          "name": "mintingLimit_",
          "type": "uint32"
        },
        {
          "internalType": "uint32",
          "name": "maxTokenId_",
          "type": "uint32"
        }
      ],
      "stateMutability": "nonpayable",
      "type": "constructor"
    },
    {
      "anonymous": false,
      "inputs": [
        {
          "indexed": true,
          "internalType": "address",
          "name": "to",
          "type": "address"
        },
        {
          "indexed": true,
          "internalType": "uint256",
          "name": "tokenId",
          "type": "uint256"
        }
      ],
      "name": "AdminMinted",
      "type": "event"
    },
    {
      "anonymous": false,
      "inputs": [
        {
          "indexed": true,
          "internalType": "address",
          "name": "owner",
          "type": "address"
        },
        {
          "indexed": true,
          "internalType": "address",
          "name": "approved",
          "type": "address"
        },
        {
          "indexed": true,
          "internalType": "uint256",
          "name": "tokenId",
          "type": "uint256"
        }
      ],
      "name": "Approval",
      "type": "event"
    },
    {
      "anonymous": false,
      "inputs": [
        {
          "indexed": true,
          "internalType": "address",
          "name": "owner",
          "type": "address"
        },
        {
          "indexed": true,
          "internalType": "address",
          "name": "operator",
          "type": "address"
        },
        {
          "indexed": false,
          "internalType": "bool",
          "name": "approved",
          "type": "bool"
        }
      ],
      "name": "ApprovalForAll",
      "type": "event"
    },
    {
      "anonymous": false,
      "inputs": [
        {
          "indexed": true,
          "internalType": "address",
          "name": "to",
          "type": "address"
        },
        {
          "indexed": true,
          "internalType": "uint256",
          "name": "tokenId",
          "type": "uint256"
        }
      ],
      "name": "Minted",
      "type": "event"
    },
    {
      "anonymous": false,
      "inputs": [
        {
          "indexed": true,
          "internalType": "address",
          "name": "previousOwner",
          "type": "address"
        },
        {
          "indexed": true,
          "internalType": "address",
          "name": "newOwner",
          "type": "address"
        }
      ],
      "name": "OwnershipTransferred",
      "type": "event"
    },
    {
      "anonymous": false,
      "inputs": [
        {
          "indexed": false,
          "internalType": "address",
          "name": "account",
          "type": "address"
        }
      ],
      "name": "Paused",
      "type": "event"
    },
    {
      "anonymous": false,
      "inputs": [
        {
          "indexed": true,
          "internalType": "address",
          "name": "from",
          "type": "address"
        },
        {
          "indexed": true,
          "internalType": "address",
          "name": "to",
          "type": "address"
        },
        {
          "indexed": true,
          "internalType": "uint256",
          "name": "tokenId",
          "type": "uint256"
        }
      ],
      "name": "Transfer",
      "type": "event"
    },
    {
      "anonymous": false,
      "inputs": [
        {
          "indexed": false,
          "internalType": "address",
          "name": "account",
          "type": "address"
        }
      ],
      "name": "Unpaused",
      "type": "event"
    },
    {
      "anonymous": false,
      "inputs": [
        {
          "indexed": true,
          "internalType": "uint256",
          "name": "tokenId",
          "type": "uint256"
        },
        {
          "indexed": true,
          "internalType": "address",
          "name": "user",
          "type": "address"
        },
        {
          "indexed": false,
          "internalType": "uint64",
          "name": "expires",
          "type": "uint64"
        }
      ],
      "name": "UpdateUser",
      "type": "event"
    },
    {
      "stateMutability": "payable",
      "type": "fallback",
      "payable": true
    },
    {
      "inputs": [],
      "name": "_mintPrice",
      "outputs": [
        {
          "internalType": "uint256",
          "name": "",
          "type": "uint256"
        }
      ],
      "stateMutability": "view",
      "type": "function",
      "constant": true
    },
    {
      "inputs": [
        {
          "internalType": "address",
          "name": "",
          "type": "address"
        }
      ],
      "name": "_mintsPerUser",
      "outputs": [
        {
          "internalType": "uint256",
          "name": "",
          "type": "uint256"
        }
      ],
      "stateMutability": "view",
      "type": "function",
      "constant": true
    },
    {
      "inputs": [],
      "name": "_notRevealedURI",
      "outputs": [
        {
          "internalType": "string",
          "name": "",
          "type": "string"
        }
      ],
      "stateMutability": "view",
      "type": "function",
      "constant": true
    },
    {
      "inputs": [
        {
          "internalType": "address",
          "name": "to",
          "type": "address"
        },
        {
          "internalType": "uint256",
          "name": "tokenId",
          "type": "uint256"
        }
      ],
      "name": "approve",
      "outputs": [],
      "stateMutability": "nonpayable",
      "type": "function"
    },
    {
      "inputs": [
        {
          "internalType": "address",
          "name": "owner",
          "type": "address"
        }
      ],
      "name": "balanceOf",
      "outputs": [
        {
          "internalType": "uint256",
          "name": "",
          "type": "uint256"
        }
      ],
      "stateMutability": "view",
      "type": "function",
      "constant": true
    },
    {
      "inputs": [
        {
          "internalType": "uint256",
          "name": "tokenId",
          "type": "uint256"
        }
      ],
      "name": "burn",
      "outputs": [],
      "stateMutability": "nonpayable",
      "type": "function"
    },
    {
      "inputs": [
        {
          "internalType": "uint256",
          "name": "tokenId",
          "type": "uint256"
        }
      ],
      "name": "getApproved",
      "outputs": [
        {
          "internalType": "address",
          "name": "",
          "type": "address"
        }
      ],
      "stateMutability": "view",
      "type": "function",
      "constant": true
    },
    {
      "inputs": [
        {
          "internalType": "address",
          "name": "owner",
          "type": "address"
        },
        {
          "internalType": "address",
          "name": "operator",
          "type": "address"
        }
      ],
      "name": "isApprovedForAll",
      "outputs": [
        {
          "internalType": "bool",
          "name": "",
          "type": "bool"
        }
      ],
      "stateMutability": "view",
      "type": "function",
      "constant": true
    },
    {
      "inputs": [],
      "name": "locked",
      "outputs": [
        {
          "internalType": "bool",
          "name": "",
          "type": "bool"
        }
      ],
      "stateMutability": "view",
      "type": "function",
      "constant": true
    },
    {
      "inputs": [],
      "name": "name",
      "outputs": [
        {
          "internalType": "string",
          "name": "",
          "type": "string"
        }
      ],
      "stateMutability": "view",
      "type": "function",
      "constant": true
    },
    {
      "inputs": [],
      "name": "owner",
      "outputs": [
        {
          "internalType": "address",
          "name": "",
          "type": "address"
        }
      ],
      "stateMutability": "view",
      "type": "function",
      "constant": true
    },
    {
      "inputs": [
        {
          "internalType": "uint256",
          "name": "tokenId",
          "type": "uint256"
        }
      ],
      "name": "ownerOf",
      "outputs": [
        {
          "internalType": "address",
          "name": "",
          "type": "address"
        }
      ],
      "stateMutability": "view",
      "type": "function",
      "constant": true
    },
    {
      "inputs": [],
      "name": "paused",
      "outputs": [
        {
          "internalType": "bool",
          "name": "",
          "type": "bool"
        }
      ],
      "stateMutability": "view",
      "type": "function",
      "constant": true
    },
    {
      "inputs": [],
      "name": "renounceOwnership",
      "outputs": [],
      "stateMutability": "nonpayable",
      "type": "function"
    },
    {
      "inputs": [],
      "name": "revealed",
      "outputs": [
        {
          "internalType": "bool",
          "name": "",
          "type": "bool"
        }
      ],
      "stateMutability": "view",
      "type": "function",
      "constant": true
    },
    {
      "inputs": [
        {
          "internalType": "address",
          "name": "from",
          "type": "address"
        },
        {
          "internalType": "address",
          "name": "to",
          "type": "address"
        },
        {
          "internalType": "uint256",
          "name": "tokenId",
          "type": "uint256"
        }
      ],
      "name": "safeTransferFrom",
      "outputs": [],
      "stateMutability": "nonpayable",
      "type": "function"
    },
    {
      "inputs": [
        {
          "internalType": "address",
          "name": "from",
          "type": "address"
        },
        {
          "internalType": "address",
          "name": "to",
          "type": "address"
        },
        {
          "internalType": "uint256",
          "name": "tokenId",
          "type": "uint256"
        },
        {
          "internalType": "bytes",
          "name": "data",
          "type": "bytes"
        }
      ],
      "name": "safeTransferFrom",
      "outputs": [],
      "stateMutability": "nonpayable",
      "type": "function"
    },
    {
      "inputs": [
        {
          "internalType": "address",
          "name": "operator",
          "type": "address"
        },
        {
          "internalType": "bool",
          "name": "approved",
          "type": "bool"
        }
      ],
      "name": "setApprovalForAll",
      "outputs": [],
      "stateMutability": "nonpayable",
      "type": "function"
    },
    {
      "inputs": [
        {
          "internalType": "uint256",
          "name": "tokenId",
          "type": "uint256"
        },
        {
          "internalType": "address",
          "name": "user",
          "type": "address"
        },
        {
          "internalType": "uint64",
          "name": "expires",
          "type": "uint64"
        }
      ],
      "name": "setUser",
      "outputs": [],
      "stateMutability": "nonpayable",
      "type": "function"
    },
    {
      "inputs": [],
      "name": "symbol",
      "outputs": [
        {
          "internalType": "string",
          "name": "",
          "type": "string"
        }
      ],
      "stateMutability": "view",
      "type": "function",
      "constant": true
    },
    {
      "inputs": [
        {
          "internalType": "address",
          "name": "from",
          "type": "address"
        },
        {
          "internalType": "address",
          "name": "to",
          "type": "address"
        },
        {
          "internalType": "uint256",
          "name": "tokenId",
          "type": "uint256"
        }
      ],
      "name": "transferFrom",
      "outputs": [],
      "stateMutability": "nonpayable",
      "type": "function"
    },
    {
      "inputs": [
        {
          "internalType": "address",
          "name": "newOwner",
          "type": "address"
        }
      ],
      "name": "transferOwnership",
      "outputs": [],
      "stateMutability": "nonpayable",
      "type": "function"
    },
    {
      "inputs": [
        {
          "internalType": "uint256",
          "name": "tokenId",
          "type": "uint256"
        }
      ],
      "name": "userExpires",
      "outputs": [
        {
          "internalType": "uint256",
          "name": "",
          "type": "uint256"
        }
      ],
      "stateMutability": "view",
      "type": "function",
      "constant": true
    },
    {
      "inputs": [
        {
          "internalType": "uint256",
          "name": "tokenId",
          "type": "uint256"
        }
      ],
      "name": "userOf",
      "outputs": [
        {
          "internalType": "address",
          "name": "",
          "type": "address"
        }
      ],
      "stateMutability": "view",
      "type": "function",
      "constant": true
    },
    {
      "stateMutability": "payable",
      "type": "receive",
      "payable": true
    },
    {
      "inputs": [
        {
          "internalType": "bytes4",
          "name": "interfaceId",
          "type": "bytes4"
        }
      ],
      "name": "supportsInterface",
      "outputs": [
        {
          "internalType": "bool",
          "name": "",
          "type": "bool"
        }
      ],
      "stateMutability": "view",
      "type": "function",
      "constant": true
    },
    {
      "inputs": [
        {
          "internalType": "uint256",
          "name": "tokenId",
          "type": "uint256"
        }
      ],
      "name": "tokenURI",
      "outputs": [
        {
          "internalType": "string",
          "name": "",
          "type": "string"
        }
      ],
      "stateMutability": "view",
      "type": "function",
      "constant": true
    },
    {
      "inputs": [
        {
          "internalType": "address",
          "name": "mintingBeneficiary",
          "type": "address"
        },
        {
          "internalType": "address",
          "name": "_owner",
          "type": "address"
        }
      ],
      "name": "updateAddressesAndTransferOwnership",
      "outputs": [],
      "stateMutability": "nonpayable",
      "type": "function"
    },
    {
      "inputs": [
        {
          "internalType": "address",
          "name": "to",
          "type": "address"
        }
      ],
      "name": "adminMint",
      "outputs": [],
      "stateMutability": "nonpayable",
      "type": "function"
    },
    {
      "inputs": [
        {
          "internalType": "address",
          "name": "to",
          "type": "address"
        },
        {
          "internalType": "uint32",
          "name": "amount",
          "type": "uint32"
        }
      ],
      "name": "mint",
      "outputs": [],
      "stateMutability": "payable",
      "type": "function",
      "payable": true
    },
    {
      "inputs": [],
      "name": "pause",
      "outputs": [],
      "stateMutability": "nonpayable",
      "type": "function"
    },
    {
      "inputs": [],
      "name": "unpause",
      "outputs": [],
      "stateMutability": "nonpayable",
      "type": "function"
    },
    {
      "inputs": [
        {
          "internalType": "address",
          "name": "beneficiary",
          "type": "address"
        }
      ],
      "name": "changeMintBeneficiary",
      "outputs": [],
      "stateMutability": "nonpayable",
      "type": "function"
    },
    {
      "inputs": [],
      "name": "getMintingLimit",
      "outputs": [
        {
          "internalType": "uint256",
          "name": "",
          "type": "uint256"
        }
      ],
      "stateMutability": "view",
      "type": "function",
      "constant": true
    },
    {
      "inputs": [
        {
          "internalType": "uint256",
          "name": "mintCost",
          "type": "uint256"
        }
      ],
      "name": "changeMintCost",
      "outputs": [],
      "stateMutability": "nonpayable",
      "type": "function"
    },
    {
      "inputs": [
        {
          "internalType": "string",
          "name": "newBaseURI",
          "type": "string"
        }
      ],
      "name": "changeBaseURI",
      "outputs": [],
      "stateMutability": "nonpayable",
      "type": "function"
    },
    {
      "inputs": [
        {
          "internalType": "string",
          "name": "newNotRevealedUri",
          "type": "string"
        }
      ],
      "name": "changeNotRevealedURI",
      "outputs": [],
      "stateMutability": "nonpayable",
      "type": "function"
    },
    {
      "inputs": [],
      "name": "reveal",
      "outputs": [],
      "stateMutability": "nonpayable",
      "type": "function"
    },
    {
      "inputs": [],
      "name": "lockMetadata",
      "outputs": [],
      "stateMutability": "nonpayable",
      "type": "function"
    },
    {
      "inputs": [
        {
          "internalType": "uint32",
          "name": "amount",
          "type": "uint32"
        }
      ],
      "name": "maxSupplyNotExceeded",
      "outputs": [
        {
          "internalType": "bool",
          "name": "",
          "type": "bool"
        }
      ],
      "stateMutability": "view",
      "type": "function",
      "constant": true
    },
    {
      "inputs": [],
      "name": "totalSupply",
      "outputs": [
        {
          "internalType": "uint256",
          "name": "",
          "type": "uint256"
        }
      ],
      "stateMutability": "view",
      "type": "function",
      "constant": true
    }
  ],
  "bytecode": "0x60806040523480156200001157600080fd5b506040516200313538038062003135833981016040819052620000349162000274565b86868181620000433362000134565b6001620000518382620003eb565b506002620000608282620003eb565b50506008805460ff19169055505050600d839055600f80546001600160401b03191664010000000063ffffffff8581169190910263ffffffff191691909117908316179055604080518082019091526005815264173539b7b760d91b6020820152600b90620000d09082620003eb565b506009620000df8682620003eb565b50600a620000ee8582620003eb565b50600f8054600160401b600160e01b03191633680100000000000000000217905562000127600c62000184602090811b620015b417901c565b50505050505050620004b7565b600080546001600160a01b038381166001600160a01b0319831681178455604051919092169283917f8be0079c531659141344cd1fd0a4f28419497f9722a3daafe3b4186f6b6457e09190a35050565b80546001019055565b634e487b7160e01b600052604160045260246000fd5b600082601f830112620001b557600080fd5b81516001600160401b0380821115620001d257620001d26200018d565b604051601f8301601f19908116603f01168101908282118183101715620001fd57620001fd6200018d565b816040528381526020925086838588010111156200021a57600080fd5b600091505b838210156200023e57858201830151818301840152908201906200021f565b83821115620002505760008385830101525b9695505050505050565b805163ffffffff811681146200026f57600080fd5b919050565b600080600080600080600060e0888a0312156200029057600080fd5b87516001600160401b0380821115620002a857600080fd5b620002b68b838c01620001a3565b985060208a0151915080821115620002cd57600080fd5b620002db8b838c01620001a3565b975060408a0151915080821115620002f257600080fd5b620003008b838c01620001a3565b965060608a01519150808211156200031757600080fd5b50620003268a828b01620001a3565b945050608088015192506200033e60a089016200025a565b91506200034e60c089016200025a565b905092959891949750929550565b600181811c908216806200037157607f821691505b6020821081036200039257634e487b7160e01b600052602260045260246000fd5b50919050565b601f821115620003e657600081815260208120601f850160051c81016020861015620003c15750805b601f850160051c820191505b81811015620003e257828155600101620003cd565b5050505b505050565b81516001600160401b038111156200040757620004076200018d565b6200041f816200041884546200035c565b8462000398565b602080601f8311600181146200045757600084156200043e5750858301515b600019600386901b1c1916600185901b178555620003e2565b600085815260208120601f198616915b82811015620004885788860151825594840194600190910190840162000467565b5085821015620004a75787850151600019600388901b60f8161c191681555b5050505050600190811b01905550565b612c6e80620004c76000396000f3fe60806040526004361061023f5760003560e01c80637f1921ef1161012e578063b88d4fde116100ab578063cf3090121161006f578063cf309012146106df578063d35e29d714610700578063e030565e14610713578063e985e9c514610733578063f2fde38b1461077c57610265565b8063b88d4fde1461063c578063bdff78ac1461065c578063c2f1f14a1461067f578063c87b56dd1461069f578063c975af6a146106bf57610265565b806395d89b41116100f257806395d89b41146105bd5780639769dc0e146105d2578063989bdbb6146105f2578063a22cb46514610607578063a475b5dd1461062757610265565b80637f1921ef1461050c5780638456cb591461052c5780638ad7a61f146105415780638da5cb5b146105615780638fc88c481461057f57610265565b80633f4ba83a116101bc5780635c975abb116101805780635c975abb1461047f5780636352211e1461049757806363af0fef146104b757806370a08231146104d7578063715018a6146104f757610265565b80633f4ba83a146103f457806342842e0e1461040957806342966c681461042957806346eb4c9a14610449578063518302271461045e57610265565b80630fa4d878116102035780630fa4d8781461035257806318160ddd1461037257806323b872dd14610387578063282474be146103a757806339a0c6f9146103d457610265565b806301ffc9a71461027d5780630387da42146102b257806306fdde03146102d6578063081812fc146102f8578063095ea7b31461033057610265565b366102655760405162461bcd60e51b815260040161025c9061233b565b60405180910390fd5b60405162461bcd60e51b815260040161025c9061233b565b34801561028957600080fd5b5061029d61029836600461239c565b61079c565b60405190151581526020015b60405180910390f35b3480156102be57600080fd5b506102c8600d5481565b6040519081526020016102a9565b3480156102e257600080fd5b506102eb6107c7565b6040516102a99190612411565b34801561030457600080fd5b50610318610313366004612424565b610859565b6040516001600160a01b0390911681526020016102a9565b34801561033c57600080fd5b5061035061034b366004612454565b610880565b005b34801561035e57600080fd5b5061035061036d36600461250a565b610995565b34801561037e57600080fd5b506102c8610a43565b34801561039357600080fd5b506103506103a2366004612553565b610a5e565b3480156103b357600080fd5b506102c86103c236600461258f565b600e6020526000908152604090205481565b3480156103e057600080fd5b506103506103ef36600461250a565b610a90565b34801561040057600080fd5b50610350610b3a565b34801561041557600080fd5b50610350610424366004612553565b610b4c565b34801561043557600080fd5b50610350610444366004612424565b610b67565b34801561045557600080fd5b506102eb610b98565b34801561046a57600080fd5b50600f5461029d90600160e81b900460ff1681565b34801561048b57600080fd5b5060085460ff1661029d565b3480156104a357600080fd5b506103186104b2366004612424565b610c26565b3480156104c357600080fd5b5061029d6104d23660046125be565b610c86565b3480156104e357600080fd5b506102c86104f236600461258f565b610d15565b34801561050357600080fd5b50610350610d9b565b34801561051857600080fd5b50610350610527366004612424565b610dad565b34801561053857600080fd5b50610350610e25565b34801561054d57600080fd5b5061035061055c3660046125d9565b610e35565b34801561056d57600080fd5b506000546001600160a01b0316610318565b34801561058b57600080fd5b506102c861059a366004612424565b600090815260076020526040902054600160a01b900467ffffffffffffffff1690565b3480156105c957600080fd5b506102eb610e4f565b3480156105de57600080fd5b506103506105ed36600461258f565b610e5e565b3480156105fe57600080fd5b50610350610f26565b34801561061357600080fd5b5061035061062236600461260c565b610fc6565b34801561063357600080fd5b50610350610fd1565b34801561064857600080fd5b50610350610657366004612648565b611018565b34801561066857600080fd5b50600f54640100000000900463ffffffff166102c8565b34801561068b57600080fd5b5061031861069a366004612424565b611050565b3480156106ab57600080fd5b506102eb6106ba366004612424565b6110a0565b3480156106cb57600080fd5b506103506106da36600461258f565b611175565b3480156106eb57600080fd5b50600f5461029d90600160e01b900460ff1681565b61035061070e3660046126c4565b6112ac565b34801561071f57600080fd5b5061035061072e3660046126ee565b61144c565b34801561073f57600080fd5b5061029d61074e3660046125d9565b6001600160a01b03918216600090815260066020908152604080832093909416825291909152205460ff1690565b34801561078857600080fd5b5061035061079736600461258f565b61153e565b60006001600160e01b03198216632b424ad760e21b14806107c157506107c1826115bd565b92915050565b6060600180546107d69061273b565b80601f01602080910402602001604051908101604052809291908181526020018280546108029061273b565b801561084f5780601f106108245761010080835404028352916020019161084f565b820191906000526020600020905b81548152906001019060200180831161083257829003601f168201915b5050505050905090565b6000610864826115e2565b506000908152600560205260409020546001600160a01b031690565b600061088b82610c26565b9050806001600160a01b0316836001600160a01b0316036108f85760405162461bcd60e51b815260206004820152602160248201527f4552433732313a20617070726f76616c20746f2063757272656e74206f776e656044820152603960f91b606482015260840161025c565b336001600160a01b03821614806109145750610914813361074e565b6109865760405162461bcd60e51b815260206004820152603e60248201527f4552433732313a20617070726f76652063616c6c6572206973206e6f7420746f60448201527f6b656e206f776e6572206e6f7220617070726f76656420666f7220616c6c0000606482015260840161025c565b6109908383611641565b505050565b61099d6116af565b600f54600160e81b900460ff16156109c75760405162461bcd60e51b815260040161025c90612775565b600a6040516020016109d9919061282c565b6040516020818303038152906040528051906020012081604051602001610a009190612838565b6040516020818303038152906040528051906020012003610a335760405162461bcd60e51b815260040161025c90612854565b600a610a3f82826128f2565b5050565b6000610a596001610a53600c5490565b90611709565b905090565b610a69335b8261171c565b610a855760405162461bcd60e51b815260040161025c906129b2565b61099083838361179b565b610a986116af565b600f54600160e01b900460ff1615610ac25760405162461bcd60e51b815260040161025c90612a00565b80604051602001610ad39190612838565b604051602081830303815290604052805190602001206009604051602001610afb919061282c565b6040516020818303038152906040528051906020012003610b2e5760405162461bcd60e51b815260040161025c90612854565b6009610a3f82826128f2565b610b426116af565b610b4a611942565b565b61099083838360405180602001604052806000815250611018565b610b7033610a63565b610b8c5760405162461bcd60e51b815260040161025c906129b2565b610b9581611994565b50565b600a8054610ba59061273b565b80601f0160208091040260200160405190810160405280929190818152602001828054610bd19061273b565b8015610c1e5780601f10610bf357610100808354040283529160200191610c1e565b820191906000526020600020905b815481529060010190602001808311610c0157829003601f168201915b505050505081565b6000818152600360205260408120546001600160a01b0316806107c15760405162461bcd60e51b8152602060048201526018602482015277115490cdcc8c4e881a5b9d985b1a59081d1bdad95b88125160421b604482015260640161025c565b600f5460009063ffffffff90811690610cb390610caa908581169060019061170916565b600c5490611a3b565b1115610d0d5760405162461bcd60e51b815260206004820152602360248201527f4c65617361626c654e66743a206d6178204e4654206c696d697420657863656560448201526219195960ea1b606482015260840161025c565b506001919050565b60006001600160a01b038216610d7f5760405162461bcd60e51b815260206004820152602960248201527f4552433732313a2061646472657373207a65726f206973206e6f7420612076616044820152683634b21037bbb732b960b91b606482015260840161025c565b506001600160a01b031660009081526004602052604090205490565b610da36116af565b610b4a6000611a47565b610db56116af565b600d548103610e205760405162461bcd60e51b815260206004820152603160248201527f4c65617361626c654e66743a206d696e7420636f73742063616e6e6f742062656044820152702073616d652061732070726576696f757360781b606482015260840161025c565b600d55565b610e2d6116af565b610b4a611a97565b610e3d6116af565b610e4682611175565b610a3f8161153e565b6060600280546107d69061273b565b610e66611ad4565b610e6e6116af565b6001600160a01b038116610ec45760405162461bcd60e51b815260206004820181905260248201527f4c65617361626c654e66743a20416464726573732063616e6e6f742062652030604482015260640161025c565b610ece6001610c86565b50610ee181610edc600c5490565b611b1a565b600c546040516001600160a01b038316907fb95721a138d27da82cf85d0a1081e8753ff7229d98779aaf27125068c1d5f90a90600090a3610b95600c80546001019055565b610f2e6116af565b600f54600160e01b900460ff1615610f585760405162461bcd60e51b815260040161025c90612a00565b600f54600160e81b900460ff16610fb15760405162461bcd60e51b815260206004820181905260248201527f4c65617361626c654e66743a20417274206973206e6f742072657665616c6564604482015260640161025c565b600f805460ff60e01b1916600160e01b179055565b610a3f338383611b34565b610fd96116af565b600f54600160e81b900460ff16156110035760405162461bcd60e51b815260040161025c90612775565b600f805460ff60e81b1916600160e81b179055565b611022338361171c565b61103e5760405162461bcd60e51b815260040161025c906129b2565b61104a84848484611c03565b50505050565b60008181526007602052604081205442600160a01b90910467ffffffffffffffff161061109357506000908152600760205260409020546001600160a01b031690565b506000919050565b919050565b600f54606090600160e81b900460ff1661114457600a80546110c19061273b565b80601f01602080910402602001604051908101604052809291908181526020018280546110ed9061273b565b801561113a5780601f1061110f5761010080835404028352916020019161113a565b820191906000526020600020905b81548152906001019060200180831161111d57829003601f168201915b50505050506107c1565b61114d82611c36565b600b604051602001611160929190612a45565b60405160208183030381529060405292915050565b61117d6116af565b6001600160a01b0381166111f05760405162461bcd60e51b815260206004820152603460248201527f4c65617361626c654e66743a204d696e74696e672062656e656669636961727960448201527302063616e6e6f74206265206164647265737320360641b606482015260840161025c565b600f546001600160a01b03600160401b90910481169082160361127b5760405162461bcd60e51b815260206004820152603760248201527f4c65617361626c654e66743a2062656e65666963696172792063616e6e6f742060448201527f6265207468652073616d652061732070726576696f7573000000000000000000606482015260840161025c565b600f80546001600160a01b03909216600160401b0268010000000000000000600160e01b0319909216919091179055565b6112b4611ad4565b346001600160a01b03831661130b5760405162461bcd60e51b815260206004820181905260248201527f4c65617361626c654e66743a20416464726573732063616e6e6f742062652030604482015260640161025c565b600d546113219063ffffffff80851690611c9c16565b81146113875760405162461bcd60e51b815260206004820152602f60248201527f4c65617361626c654e66743a2045746865722073656e74206973206e6f74207460448201526e1a19481c9a59da1d08185b5bdd5b9d608a1b606482015260840161025c565b61139082610c86565b5061139b8383611ca8565b506001600160a01b0383166000908152600e60205260408120805463ffffffff851692906113ca908490612a82565b909155508290505b63ffffffff811615611442576113eb84610edc600c5490565b600c546040516001600160a01b038616907f30385c845b448a36257a6a1716e6ad2e1bc2cbe333cde1e69fe849ad6511adfe90600090a3611430600c80546001019055565b8061143a81612a9a565b9150506113d2565b5061099081611d4e565b611456338461171c565b6114bd5760405162461bcd60e51b815260206004820152603260248201527f455243343930373a207472616e736665722063616c6c6572206973206e6f74206044820152711bdddb995c881b9bdc88185c1c1c9bdd995960721b606482015260840161025c565b60008381526007602090815260409182902080546001600160a01b0386166001600160e01b03199091168117600160a01b67ffffffffffffffff871690810291909117835593519384529092909186917f4e06b4e7000e659094299b3533b47b6aa8ad048e95e872d23d1f4ee55af89cfe910160405180910390a350505050565b6115466116af565b6001600160a01b0381166115ab5760405162461bcd60e51b815260206004820152602660248201527f4f776e61626c653a206e6577206f776e657220697320746865207a65726f206160448201526564647265737360d01b606482015260840161025c565b610b9581611a47565b80546001019055565b60006001600160e01b03198216632b424ad760e21b14806107c157506107c182611e04565b6000818152600360205260409020546001600160a01b0316610b955760405162461bcd60e51b8152602060048201526018602482015277115490cdcc8c4e881a5b9d985b1a59081d1bdad95b88125160421b604482015260640161025c565b600081815260056020526040902080546001600160a01b0319166001600160a01b038416908117909155819061167682610c26565b6001600160a01b03167f8c5be1e5ebec7d5bd14f71427d1e84f3dd0314c0f7b2291e5b200ac8c7c3b92560405160405180910390a45050565b6000546001600160a01b03163314610b4a5760405162461bcd60e51b815260206004820181905260248201527f4f776e61626c653a2063616c6c6572206973206e6f7420746865206f776e6572604482015260640161025c565b60006117158284612aba565b9392505050565b60008061172883610c26565b9050806001600160a01b0316846001600160a01b0316148061176f57506001600160a01b0380821660009081526006602090815260408083209388168352929052205460ff165b806117935750836001600160a01b031661178884610859565b6001600160a01b0316145b949350505050565b826001600160a01b03166117ae82610c26565b6001600160a01b0316146118125760405162461bcd60e51b815260206004820152602560248201527f4552433732313a207472616e736665722066726f6d20696e636f72726563742060448201526437bbb732b960d91b606482015260840161025c565b6001600160a01b0382166118745760405162461bcd60e51b8152602060048201526024808201527f4552433732313a207472616e7366657220746f20746865207a65726f206164646044820152637265737360e01b606482015260840161025c565b61187f838383611e54565b61188a600082611641565b6001600160a01b03831660009081526004602052604081208054600192906118b3908490612aba565b90915550506001600160a01b03821660009081526004602052604081208054600192906118e1908490612a82565b909155505060008181526003602052604080822080546001600160a01b0319166001600160a01b0386811691821790925591518493918716917fddf252ad1be2c89b69c2b068fc378daa952ba7f163c4a11628f55a4df523b3ef91a4505050565b61194a611ee9565b6008805460ff191690557f5db9ee0a495bf2e6ff9c91a7834c1ba4fdd244a5e8aa4e537bd38aeae4b073aa335b6040516001600160a01b03909116815260200160405180910390a1565b600061199f82610c26565b90506119ad81600084611e54565b6119b8600083611641565b6001600160a01b03811660009081526004602052604081208054600192906119e1908490612aba565b909155505060008281526003602052604080822080546001600160a01b0319169055518391906001600160a01b038416907fddf252ad1be2c89b69c2b068fc378daa952ba7f163c4a11628f55a4df523b3ef908390a45050565b60006117158284612a82565b600080546001600160a01b038381166001600160a01b0319831681178455604051919092169283917f8be0079c531659141344cd1fd0a4f28419497f9722a3daafe3b4186f6b6457e09190a35050565b611a9f611ad4565b6008805460ff191660011790557f62e78cea01bee320cd4e420270b5ea74000d11b0c9f74754ebdbfc544b05a2586119773390565b60085460ff1615610b4a5760405162461bcd60e51b815260206004820152601060248201526f14185d5cd8589b194e881c185d5cd95960821b604482015260640161025c565b610a3f828260405180602001604052806000815250611f32565b816001600160a01b0316836001600160a01b031603611b955760405162461bcd60e51b815260206004820152601960248201527f4552433732313a20617070726f766520746f2063616c6c657200000000000000604482015260640161025c565b6001600160a01b03838116600081815260066020908152604080832094871680845294825291829020805460ff191686151590811790915591519182527f17307eab39ab6107e8899845ad3d59bd9653f200f220920489ca2b5937696c3191015b60405180910390a3505050565b611c0e84848461179b565b611c1a84848484611f65565b61104a5760405162461bcd60e51b815260040161025c90612ad1565b6060611c41826115e2565b6000611c4b612066565b90506000815111611c6b5760405180602001604052806000815250611715565b80611c7584612075565b604051602001611c86929190612b23565b6040516020818303038152906040529392505050565b60006117158284612b52565b600f546001600160a01b0383166000908152600e6020526040812054909163ffffffff640100000000909104811691611ce59185811690611a3b16565b1115611d455760405162461bcd60e51b815260206004820152602960248201527f4c65617361626c654e66743a204d6178204e465420706572206164647265737360448201526808195e18d95959195960ba1b606482015260840161025c565b50600192915050565b600f54604051600091600160401b90046001600160a01b03169083908381818185875af1925050503d8060008114611da2576040519150601f19603f3d011682016040523d82523d6000602084013e611da7565b606091505b5050905080610a3f5760405162461bcd60e51b8152602060048201526024808201527f4c65617361626c654e66743a204661696c656420746f20666f72776172642066604482015263756e647360e01b606482015260840161025c565b60006001600160e01b031982166380ac58cd60e01b1480611e3557506001600160e01b03198216635b5e139f60e01b145b806107c157506301ffc9a760e01b6001600160e01b03198316146107c1565b611e5f838383612176565b816001600160a01b0316836001600160a01b031614158015611e9757506000818152600760205260409020546001600160a01b031615155b1561099057600081815260076020908152604080832080546001600160e01b03191690555182815283917f4e06b4e7000e659094299b3533b47b6aa8ad048e95e872d23d1f4ee55af89cfe9101611bf6565b60085460ff16610b4a5760405162461bcd60e51b815260206004820152601460248201527314185d5cd8589b194e881b9bdd081c185d5cd95960621b604482015260640161025c565b611f3c83836121e8565b611f496000848484611f65565b6109905760405162461bcd60e51b815260040161025c90612ad1565b60006001600160a01b0384163b1561205b57604051630a85bd0160e11b81526001600160a01b0385169063150b7a0290611fa9903390899088908890600401612b71565b6020604051808303816000875af1925050508015611fe4575060408051601f3d908101601f19168201909252611fe191810190612bae565b60015b612041573d808015612012576040519150601f19603f3d011682016040523d82523d6000602084013e612017565b606091505b5080516000036120395760405162461bcd60e51b815260040161025c90612ad1565b805181602001fd5b6001600160e01b031916630a85bd0160e11b149050611793565b506001949350505050565b6060600980546107d69061273b565b60608160000361209c5750506040805180820190915260018152600360fc1b602082015290565b8160005b81156120c657806120b081612bcb565b91506120bf9050600a83612bfa565b91506120a0565b60008167ffffffffffffffff8111156120e1576120e161247e565b6040519080825280601f01601f19166020018201604052801561210b576020820181803683370190505b5090505b841561179357612120600183612aba565b915061212d600a86612c0e565b612138906030612a82565b60f81b81838151811061214d5761214d612c22565b60200101906001600160f81b031916908160001a90535061216f600a86612bfa565b945061210f565b612181838383612336565b60085460ff16156109905760405162461bcd60e51b815260206004820152602b60248201527f4552433732315061757361626c653a20746f6b656e207472616e73666572207760448201526a1a1a5b19481c185d5cd95960aa1b606482015260840161025c565b6001600160a01b03821661223e5760405162461bcd60e51b815260206004820181905260248201527f4552433732313a206d696e7420746f20746865207a65726f2061646472657373604482015260640161025c565b6000818152600360205260409020546001600160a01b0316156122a35760405162461bcd60e51b815260206004820152601c60248201527f4552433732313a20746f6b656e20616c7265616479206d696e74656400000000604482015260640161025c565b6122af60008383611e54565b6001600160a01b03821660009081526004602052604081208054600192906122d8908490612a82565b909155505060008181526003602052604080822080546001600160a01b0319166001600160a01b03861690811790915590518392907fddf252ad1be2c89b69c2b068fc378daa952ba7f163c4a11628f55a4df523b3ef908290a45050565b611e5f565b6020808252602b908201527f4c65617361626c654e66743a20506c6561736520757365204d696e74206f722060408201526a41646d696e2063616c6c7360a81b606082015260800190565b6001600160e01b031981168114610b9557600080fd5b6000602082840312156123ae57600080fd5b813561171581612386565b60005b838110156123d45781810151838201526020016123bc565b8381111561104a5750506000910152565b600081518084526123fd8160208601602086016123b9565b601f01601f19169290920160200192915050565b60208152600061171560208301846123e5565b60006020828403121561243657600080fd5b5035919050565b80356001600160a01b038116811461109b57600080fd5b6000806040838503121561246757600080fd5b6124708361243d565b946020939093013593505050565b634e487b7160e01b600052604160045260246000fd5b600067ffffffffffffffff808411156124af576124af61247e565b604051601f8501601f19908116603f011681019082821181831017156124d7576124d761247e565b816040528093508581528686860111156124f057600080fd5b858560208301376000602087830101525050509392505050565b60006020828403121561251c57600080fd5b813567ffffffffffffffff81111561253357600080fd5b8201601f8101841361254457600080fd5b61179384823560208401612494565b60008060006060848603121561256857600080fd5b6125718461243d565b925061257f6020850161243d565b9150604084013590509250925092565b6000602082840312156125a157600080fd5b6117158261243d565b803563ffffffff8116811461109b57600080fd5b6000602082840312156125d057600080fd5b611715826125aa565b600080604083850312156125ec57600080fd5b6125f58361243d565b91506126036020840161243d565b90509250929050565b6000806040838503121561261f57600080fd5b6126288361243d565b91506020830135801515811461263d57600080fd5b809150509250929050565b6000806000806080858703121561265e57600080fd5b6126678561243d565b93506126756020860161243d565b925060408501359150606085013567ffffffffffffffff81111561269857600080fd5b8501601f810187136126a957600080fd5b6126b887823560208401612494565b91505092959194509250565b600080604083850312156126d757600080fd5b6126e08361243d565b9150612603602084016125aa565b60008060006060848603121561270357600080fd5b833592506127136020850161243d565b9150604084013567ffffffffffffffff8116811461273057600080fd5b809150509250925092565b600181811c9082168061274f57607f821691505b60208210810361276f57634e487b7160e01b600052602260045260246000fd5b50919050565b60208082526024908201527f4c65617361626c654e66743a2041727420697320616c72656164792072657665604082015263185b195960e21b606082015260800190565b600081546127c68161273b565b600182811680156127de57600181146127f357612822565b60ff1984168752821515830287019450612822565b8560005260208060002060005b858110156128195781548a820152908401908201612800565b50505082870194505b5050505092915050565b600061171582846127b9565b6000825161284a8184602087016123b9565b9190910192915050565b60208082526030908201527f4c65617361626c654e66743a2042617365205552492063616e6e6f742062652060408201526f73616d652061732070726576696f757360801b606082015260800190565b601f82111561099057600081815260208120601f850160051c810160208610156128cb5750805b601f850160051c820191505b818110156128ea578281556001016128d7565b505050505050565b815167ffffffffffffffff81111561290c5761290c61247e565b6129208161291a845461273b565b846128a4565b602080601f831160018114612955576000841561293d5750858301515b600019600386901b1c1916600185901b1785556128ea565b600085815260208120601f198616915b8281101561298457888601518255948401946001909101908401612965565b50858210156129a25787850151600019600388901b60f8161c191681555b5050505050600190811b01905550565b6020808252602e908201527f4552433732313a2063616c6c6572206973206e6f7420746f6b656e206f776e6560408201526d1c881b9bdc88185c1c1c9bdd995960921b606082015260800190565b60208082526025908201527f4c65617361626c654e66743a204d65746164617461205552497320617265206c6040820152641bd8dad95960da1b606082015260800190565b60008351612a578184602088016123b9565b612a63818401856127b9565b95945050505050565b634e487b7160e01b600052601160045260246000fd5b60008219821115612a9557612a95612a6c565b500190565b600063ffffffff821680612ab057612ab0612a6c565b6000190192915050565b600082821015612acc57612acc612a6c565b500390565b60208082526032908201527f4552433732313a207472616e7366657220746f206e6f6e20455243373231526560408201527131b2b4bb32b91034b6b83632b6b2b73a32b960711b606082015260800190565b60008351612b358184602088016123b9565b835190830190612b498183602088016123b9565b01949350505050565b6000816000190483118215151615612b6c57612b6c612a6c565b500290565b6001600160a01b0385811682528416602082015260408101839052608060608201819052600090612ba4908301846123e5565b9695505050505050565b600060208284031215612bc057600080fd5b815161171581612386565b600060018201612bdd57612bdd612a6c565b5060010190565b634e487b7160e01b600052601260045260246000fd5b600082612c0957612c09612be4565b500490565b600082612c1d57612c1d612be4565b500690565b634e487b7160e01b600052603260045260246000fdfea2646970667358221220527c7eb7048538dc1efce6ddfad766bc98a79d4dab19871079cf6122c847b3cc64736f6c634300080f0033",
  "immutableReferences": {},
  "source": "// SPDX-License-Identifier: MIT\r\npragma solidity ^0.8.0;\r\n\r\n/// @notice tokens\r\nimport \"./ERC4907.sol\";\r\nimport \"@openzeppelin/contracts/token/ERC721/extensions/ERC721Burnable.sol\";\r\nimport \"@openzeppelin/contracts/token/ERC721/extensions/ERC721Pausable.sol\";\r\n\r\nimport \"@openzeppelin/contracts/utils/Counters.sol\";\r\nimport \"@openzeppelin/contracts/utils/math/SafeMath.sol\";\r\nimport \"@openzeppelin/contracts/access/Ownable.sol\";\r\n\r\n/**\r\n * @title Leasable NFT\r\n * @author Ghadi Mhawej\r\n **/\r\n\r\ncontract LeasableNft is Ownable, ERC4907, ERC721Burnable, ERC721Pausable {\r\n    /// @notice using safe math for uints (uints might cause an overflow ==> reverts transaction when an oveflow occurs!)\r\n    using SafeMath for uint256;\r\n    using SafeMath for uint32;\r\n\r\n    /// @notice using Strings for uints conversions such as => tokenId\r\n    using Strings for uint256;\r\n\r\n    /// @notice using Address for addresses extended functionality\r\n    using Address for address;\r\n\r\n    /// @notice using a counter to increment next Id to be minted\r\n    using Counters for Counters.Counter;\r\n\r\n    /// @notice EIP721-required Base URI\r\n    /// This is a Uniform Resource Identifier, distinct used to identify each unique nft from the other.\r\n    string private _baseTokenURI;\r\n\r\n    /// @notice URI to hide NFTS during minting\r\n    string public _notRevealedURI;\r\n\r\n    /// @notice Base extension for metadata\r\n    string private _baseExtension;\r\n\r\n    /// @notice token id to be minted next\r\n    Counters.Counter private _tokenIdTracker;\r\n\r\n    /// @notice The rate of minting per phase\r\n    uint256 public _mintPrice;\r\n\r\n    /// @notice The rate of mints per user\r\n    mapping(address => uint256) public _mintsPerUser;\r\n\r\n    /// @notice Max number of NFTs to be minted\r\n    uint32 private _maxTokenId;\r\n\r\n    /// @notice max amount of nfts that can be minted per wallet address\r\n    uint32 private _mintingLimit;\r\n\r\n    /// @notice Splitter Contract that will collect mint fees;\r\n    address payable private _mintingBeneficiary;\r\n\r\n    /// @notice public metadata locked flag\r\n    bool public locked;\r\n\r\n    /// @notice public revealed state\r\n    bool public revealed;\r\n\r\n    /// @notice Minting events definition\r\n    event AdminMinted(address indexed to, uint256 indexed tokenId);\r\n    event Minted(address indexed to, uint256 indexed tokenId);\r\n\r\n    /// @notice metadata not locked modifier\r\n    /// Require function, the first parameter is the condition, if it is not met, then the second parameter is will be outputed\r\n    modifier notLocked() {\r\n        require(!locked, \"LeasableNft: Metadata URIs are locked\");\r\n        /// The uncommon instruction specified where the function should be executed\r\n        _;\r\n    }\r\n\r\n    /// @notice Art is not revealed modifier\r\n    modifier notRevealed() {\r\n        require(!revealed, \"LeasableNft: Art is already revealed\");\r\n        _;\r\n    }\r\n\r\n    /// @notice Art is already revealed\r\n    modifier Revealed() {\r\n        require(revealed, \"LeasableNft: Art is not revealed\");\r\n        _;\r\n    }\r\n\r\n    /// @notice constructor\r\n    /// @param name the name of the EIP721 contract\r\n    /// @param symbol the token symbol\r\n    /// @param baseTokenURI EIP721-required Base URI\r\n    /// @param notRevealedURI URI ot hide NFTs during minting\r\n\r\n    constructor(\r\n        string memory name,\r\n        string memory symbol,\r\n        string memory baseTokenURI,\r\n        string memory notRevealedURI,\r\n        uint256 mintPrice_,\r\n        uint32 mintingLimit_,\r\n        uint32 maxTokenId_\r\n    ) ERC4907(name, symbol) Ownable() {\r\n        _mintPrice = mintPrice_;\r\n        _mintingLimit = mintingLimit_;\r\n        _maxTokenId = maxTokenId_;\r\n        _baseExtension = \".json\";\r\n        _baseTokenURI = baseTokenURI;\r\n        _notRevealedURI = notRevealedURI;\r\n        _mintingBeneficiary = payable(msg.sender);\r\n        _tokenIdTracker.increment();\r\n    }\r\n\r\n    /// @notice receive fallback should revert\r\n    /// @notice receive payement address without any minting.\r\n\r\n    receive() external payable {\r\n        revert(\"LeasableNft: Please use Mint or Admin calls\");\r\n    }\r\n\r\n    /// @notice default fallback should revert\r\n    fallback() external payable {\r\n        revert(\"LeasableNft: Please use Mint or Admin calls\");\r\n    }\r\n\r\n    /// @notice returnd the base URI for the contract\r\n    function _baseURI() internal view virtual override returns (string memory) {\r\n        return _baseTokenURI;\r\n    }\r\n\r\n    /// @dev See {IERC165-supportsInterface}.\r\n    function supportsInterface(bytes4 interfaceId)\r\n        public\r\n        view\r\n        virtual\r\n        override(ERC721, ERC4907)\r\n        returns (bool)\r\n    {\r\n        return\r\n            interfaceId == type(IERC4907).interfaceId ||\r\n            super.supportsInterface(interfaceId);\r\n    }\r\n\r\n    /// @dev See {IERC721Metadata-tokenURI}\r\n    function tokenURI(uint256 tokenId)\r\n        public\r\n        view\r\n        virtual\r\n        override\r\n        returns (string memory)\r\n    {\r\n        return\r\n            revealed\r\n                ? string(\r\n                    abi.encodePacked(super.tokenURI(tokenId), _baseExtension)\r\n                )\r\n                : _notRevealedURI;\r\n    }\r\n\r\n    /// @notice updates the 2 addresses involved in the contract flow\r\n    /// @param mintingBeneficiary the contract Splitter that will receive minting and royalties funds\r\n    /// @param _owner the new admin address\r\n\r\n    function updateAddressesAndTransferOwnership(\r\n        address mintingBeneficiary,\r\n        address _owner\r\n    ) public onlyOwner {\r\n        changeMintBeneficiary(mintingBeneficiary);\r\n        transferOwnership(_owner);\r\n    }\r\n\r\n    /// @notice changes the minting beneficiary payable address\r\n    /// @notice beneficiary the contract Splitter that will receive minting funds\r\n\r\n    /**\r\n     * @notice a function for admins to mint cost-free\r\n     * @param to the address to send the minted token to\r\n     **/\r\n\r\n    function adminMint(address to) external whenNotPaused onlyOwner {\r\n        require(to != address(0), \"LeasableNft: Address cannot be 0\");\r\n        maxSupplyNotExceeded(1);\r\n        _safeMint(to, _tokenIdTracker.current());\r\n        emit AdminMinted(to, _tokenIdTracker.current());\r\n        _tokenIdTracker.increment();\r\n    }\r\n\r\n    /// @notice the public minting function -- requires 1 ether sent\r\n    /// @param to the address to send the minted token to\r\n    /// @param amount amount of tokens to mint\r\n\r\n    function mint(address to, uint32 amount) external payable whenNotPaused {\r\n        uint256 received = msg.value;\r\n        require(to != address(0), \"LeasableNft: Address cannot be 0\");\r\n        require(\r\n            received == _mintPrice.mul(amount),\r\n            \"LeasableNft: Ether sent is not the right amount\"\r\n        );\r\n\r\n        maxSupplyNotExceeded(amount);\r\n\r\n        checkLimit(to, amount);\r\n        _mintsPerUser[to] += amount;\r\n\r\n        for (uint32 i = amount; i > 0; i--) {\r\n            _safeMint(to, _tokenIdTracker.current());\r\n            emit Minted(to, _tokenIdTracker.current());\r\n            _tokenIdTracker.increment();\r\n        }\r\n\r\n        _forwardFunds(received);\r\n    }\r\n\r\n    /// @notice pausing the cotract minting and token transfer\r\n    function pause() public virtual onlyOwner {\r\n        _pause();\r\n    }\r\n\r\n    /// @notice unpausing the contract minting and token transfer\r\n    function unpause() public virtual onlyOwner {\r\n        _unpause();\r\n    }\r\n\r\n    function changeMintBeneficiary(address beneficiary) public onlyOwner {\r\n        require(\r\n            beneficiary != address(0),\r\n            \"LeasableNft: Minting beneficiary cannot be address 0\"\r\n        );\r\n\r\n        require(\r\n            beneficiary != _mintingBeneficiary,\r\n            \"LeasableNft: beneficiary cannot be the same as previous\"\r\n        );\r\n        _mintingBeneficiary = payable(beneficiary);\r\n    }\r\n\r\n    ///@notice gets the amounts of mints per wallet address\r\n    function getMintingLimit() public view returns (uint256) {\r\n        return _mintingLimit;\r\n    }\r\n\r\n    /// @notice changes the minting cost\r\n    /// @param mintCost new minting cost\r\n\r\n    function changeMintCost(uint256 mintCost) public onlyOwner {\r\n        require(\r\n            mintCost != _mintPrice,\r\n            \"LeasableNft: mint cost cannot be same as previous\"\r\n        );\r\n        _mintPrice = mintCost;\r\n    }\r\n\r\n    function changeBaseURI(string memory newBaseURI)\r\n        public\r\n        onlyOwner\r\n        notLocked\r\n    {\r\n        require(\r\n            (keccak256(abi.encodePacked((_baseTokenURI))) !=\r\n                keccak256(abi.encodePacked((newBaseURI)))),\r\n            \"LeasableNft: Base URI cannot be same as previous\"\r\n        );\r\n        _baseTokenURI = newBaseURI;\r\n    }\r\n\r\n    /**\r\n     * @notice changes to not revealed URI\r\n     * @param newNotRevealedUri the new notRevealed URI\r\n     **/\r\n    function changeNotRevealedURI(string memory newNotRevealedUri)\r\n        public\r\n        onlyOwner\r\n        notRevealed\r\n    {\r\n        require(\r\n            (keccak256(abi.encodePacked((newNotRevealedUri))) !=\r\n                keccak256(abi.encodePacked((_notRevealedURI)))),\r\n            \"LeasableNft: Base URI cannot be same as previous\"\r\n        );\r\n        _notRevealedURI = newNotRevealedUri;\r\n    }\r\n\r\n    ///@notice reveal NFTs\r\n    function reveal() public onlyOwner notRevealed {\r\n        revealed = true;\r\n    }\r\n\r\n    /// @notice lock metadata forever\r\n    function lockMetadata() public onlyOwner notLocked Revealed {\r\n        locked = true;\r\n    }\r\n\r\n    ///@notice the public function for checking if more tokens can be minted\r\n    function maxSupplyNotExceeded(uint32 amount) public view returns (bool) {\r\n        require(\r\n            _tokenIdTracker.current().add(amount.sub(1)) <= _maxTokenId,\r\n            \"LeasableNft: max NFT limit exceeded\"\r\n        );\r\n        return true;\r\n    }\r\n\r\n    /// @notice Current totalSupply\r\n    function totalSupply() external view returns (uint256) {\r\n        return (_tokenIdTracker.current()).sub(1);\r\n    }\r\n\r\n    /// @notice Determines how ETH is stored/forwarded on purchases.\r\n    /// @param received amount to forward\r\n\r\n    function _forwardFunds(uint256 received) internal {\r\n        /// @notice forward fund to Splitter contract using CALL to avoid 2300 stipend limit\r\n        (bool success, ) = _mintingBeneficiary.call{value: received}(\"\");\r\n        require(success, \"LeasableNft: Failed to forward funds\");\r\n    }\r\n\r\n    /// @notice before transfer hook function\r\n    /// @param from the address to send the token from\r\n    /// @param to the address to send the token to\r\n    /// @param tokenId to token ID to be sent\r\n\r\n    function _beforeTokenTransfer(\r\n        address from,\r\n        address to,\r\n        uint256 tokenId\r\n    ) internal virtual override(ERC721, ERC721Pausable, ERC4907) {\r\n        super._beforeTokenTransfer(from, to, tokenId);\r\n        if (from != to && _users[tokenId].user != address(0)) {\r\n            delete _users[tokenId];\r\n            emit UpdateUser(tokenId, address(0), 0);\r\n        }\r\n    }\r\n\r\n    function checkLimit(address minter, uint32 amount)\r\n        internal\r\n        view\r\n        returns (bool)\r\n    {\r\n        require(\r\n            _mintsPerUser[minter].add(amount) <= _mintingLimit,\r\n            \"LeasableNft: Max NFT per address exceeded\"\r\n        );\r\n        return true;\r\n    }\r\n}\r\n",
  "sourcePath": "C:\\Users\\Ghadi\\Desktop\\Portfolio\\LeasableNft\\contracts\\LeasableNft.sol",
  "compiler": {
    "name": "solc",
    "version": "0.8.15+commit.e14f2714.Emscripten.clang"
  },
  "schemaVersion": "3.4.4",
  "updatedAt": "2022-07-24T09:20:47.166Z",
  "networkType": "ethereum",
  "devdoc": {
    "author": "Ghadi Mhawej*",
    "kind": "dev",
    "methods": {
      "adminMint(address)": {
        "params": {
          "to": "the address to send the minted token to*"
        }
      },
      "approve(address,uint256)": {
        "details": "See {IERC721-approve}."
      },
      "balanceOf(address)": {
        "details": "See {IERC721-balanceOf}."
      },
      "burn(uint256)": {
        "details": "Burns `tokenId`. See {ERC721-_burn}. Requirements: - The caller must own `tokenId` or be an approved operator."
      },
      "changeMintCost(uint256)": {
        "params": {
          "mintCost": "new minting cost"
        }
      },
      "changeNotRevealedURI(string)": {
        "params": {
          "newNotRevealedUri": "the new notRevealed URI*"
        }
      },
      "constructor": {
        "params": {
          "baseTokenURI": "EIP721-required Base URI",
          "name": "the name of the EIP721 contract",
          "notRevealedURI": "URI ot hide NFTs during minting",
          "symbol": "the token symbol"
        }
      },
      "getApproved(uint256)": {
        "details": "See {IERC721-getApproved}."
      },
      "isApprovedForAll(address,address)": {
        "details": "See {IERC721-isApprovedForAll}."
      },
      "mint(address,uint32)": {
        "params": {
          "amount": "amount of tokens to mint",
          "to": "the address to send the minted token to"
        }
      },
      "name()": {
        "details": "See {IERC721Metadata-name}."
      },
      "owner()": {
        "details": "Returns the address of the current owner."
      },
      "ownerOf(uint256)": {
        "details": "See {IERC721-ownerOf}."
      },
      "paused()": {
        "details": "Returns true if the contract is paused, and false otherwise."
      },
      "renounceOwnership()": {
        "details": "Leaves the contract without owner. It will not be possible to call `onlyOwner` functions anymore. Can only be called by the current owner. NOTE: Renouncing ownership will leave the contract without an owner, thereby removing any functionality that is only available to the owner."
      },
      "safeTransferFrom(address,address,uint256)": {
        "details": "See {IERC721-safeTransferFrom}."
      },
      "safeTransferFrom(address,address,uint256,bytes)": {
        "details": "See {IERC721-safeTransferFrom}."
      },
      "setApprovalForAll(address,bool)": {
        "details": "See {IERC721-setApprovalForAll}."
      },
      "setUser(uint256,address,uint64)": {
        "details": "The zero address indicates there is no user Throws if `tokenId` is not valid NFT",
        "params": {
          "expires": "UNIX timestamp, The new user could use the NFT before expires",
          "user": "The new user of the NFT"
        }
      },
      "supportsInterface(bytes4)": {
        "details": "See {IERC165-supportsInterface}."
      },
      "symbol()": {
        "details": "See {IERC721Metadata-symbol}."
      },
      "tokenURI(uint256)": {
        "details": "See {IERC721Metadata-tokenURI}"
      },
      "transferFrom(address,address,uint256)": {
        "details": "See {IERC721-transferFrom}."
      },
      "transferOwnership(address)": {
        "details": "Transfers ownership of the contract to a new account (`newOwner`). Can only be called by the current owner."
      },
      "updateAddressesAndTransferOwnership(address,address)": {
        "params": {
          "_owner": "the new admin address",
          "mintingBeneficiary": "the contract Splitter that will receive minting and royalties funds"
        }
      },
      "userExpires(uint256)": {
        "details": "The zero value indicates that there is no user",
        "params": {
          "tokenId": "The NFT to get the user expires for"
        },
        "returns": {
          "_0": "The user expires for this NFT"
        }
      },
      "userOf(uint256)": {
        "details": "The zero address indicates that there is no user or the user is expired",
        "params": {
          "tokenId": "The NFT to get the user address for"
        },
        "returns": {
          "_0": "The user address for this NFT"
        }
      }
    },
    "title": "Leasable NFT",
    "version": 1
  },
  "userdoc": {
    "events": {
      "AdminMinted(address,uint256)": {
        "notice": "Minting events definition"
      },
      "UpdateUser(uint256,address,uint64)": {
        "notice": "Emitted when the `user` of an NFT or the `expires` of the `user` is changed The zero address for user indicates that there is no user address"
      }
    },
    "kind": "user",
    "methods": {
      "_mintPrice()": {
        "notice": "The rate of minting per phase"
      },
      "_mintsPerUser(address)": {
        "notice": "The rate of mints per user"
      },
      "_notRevealedURI()": {
        "notice": "URI to hide NFTS during minting"
      },
      "adminMint(address)": {
        "notice": "a function for admins to mint cost-free"
      },
      "changeMintCost(uint256)": {
        "notice": "changes the minting cost"
      },
      "changeNotRevealedURI(string)": {
        "notice": "changes to not revealed URI"
      },
      "constructor": {
        "notice": "constructor"
      },
      "getMintingLimit()": {
        "notice": "gets the amounts of mints per wallet address"
      },
      "lockMetadata()": {
        "notice": "lock metadata forever"
      },
      "locked()": {
        "notice": "public metadata locked flag"
      },
      "maxSupplyNotExceeded(uint32)": {
        "notice": "the public function for checking if more tokens can be minted"
      },
      "mint(address,uint32)": {
        "notice": "the public minting function -- requires 1 ether sent"
      },
      "pause()": {
        "notice": "pausing the cotract minting and token transfer"
      },
      "reveal()": {
        "notice": "reveal NFTs"
      },
      "revealed()": {
        "notice": "public revealed state"
      },
      "setUser(uint256,address,uint64)": {
        "notice": "set the user and expires of a NFT"
      },
      "totalSupply()": {
        "notice": "Current totalSupply"
      },
      "unpause()": {
        "notice": "unpausing the contract minting and token transfer"
      },
      "updateAddressesAndTransferOwnership(address,address)": {
        "notice": "updates the 2 addresses involved in the contract flow"
      },
      "userExpires(uint256)": {
        "notice": "Get the user expires of an NFT"
      },
      "userOf(uint256)": {
        "notice": "Get the user address of an NFT"
      }
    },
    "version": 1
  }
}